:100000000C942A000C9434070C945B070C94820720
:100010000C9447000C9447000C9447000C94470044
:100020000C9447000C9447000C94EF070C941608AE
:100030000C9447000C9447000C9447000C94470024
:100040000C9447000C9447000C9447000C94470014
:100050000C94470011241FBECFE5D8E0DEBFCDBF12
:1000600012E0A0E6B0E0E0EFF2E102C005900D92F0
:10007000A830B107D9F722E0A8E0B2E001C01D9294
:10008000A831B207E1F70E9406010C9476090C949E
:100090000000809108029091090201969093090254
:1000A00080930802019721F480E090E00E94E90724
:1000B0008091080290910902029751F40E94EC0786
:1000C00090930D0280930C0261E086E00E94BB06D3
:1000D0008091080290910902039779F40E94EC073D
:1000E00020910C0230910D02821B930B90930B0216
:1000F00080930A0286E00E94230708950E94CC03A1
:1001000080E790E00E9439032FEF83ED90E32150C8
:1001100080409040E1F700C000000E944C030E9424
:1001200067042FEF89E698E1215080409040E1F785
:1001300000C000000E944C030E94AD0740E062E056
:1001400083E00E94AB0562E086E00E94BB0689E482
:1001500090E00E942F070E94B30788E890E00E9479
:1001600039032FEF89E698E1215080409040E1F774
:1001700000C000000E944C030E94C0078DE990E07F
:100180000E9439032FEF89E698E12150804090408A
:10019000E1F700C000000E944C030E94CC078EEAE9
:1001A00090E00E9439032FEF89E698E121508040CA
:1001B0009040E1F700C000000E944C030E94DF075E
:1001C00083EC90E00E9439032FEF89E698E12150FB
:1001D00080409040E1F700C000000E944C0380E4A2
:1001E0000E94CA070E94A9070E946D0184ED90E059
:1001F0000E9439032FEF89E698E12150804090401A
:10020000E1F700C000000E944C0308950E947E00A8
:100210000E94BE01C82F8F3FC9F08EEF90E00E9470
:1002200039032FEF89E698E1215080409040E1F7B3
:1002300000C000000E944C038AE291E00E94390352
:100240008C2F0E9411038C2F0E94CA070E94490024
:1002500080910C0290910D02892B31F480910A0259
:1002600090910B02892BA1F30E94670466E180E064
:100270000E94560381E591E00E94390360910C02CF
:1002800070910D0280E090E00E946C0820E030E068
:1002900040E05FE30E94D2080E943D08CB010E942B
:1002A0005E0368E181E00E94560380E691E00E94CF
:1002B000390360910A0270910B0280E090E00E9485
:1002C0006C0820E030E040E05FE30E94D2080E942A
:1002D0003D08CB010E945E039BCF0F931F93CF93EA
:1002E000DF93CDB7DEB728970FB6F894DEBF0FBE09
:1002F000CDBF83E0898394E09A8395E09B8396E069
:100300009C831D8291E09E8392E09F83888710E00A
:1003100012C0E1E0F0E0EC0FFD1FE10FF11D0081E4
:1003200040E0602F82E00E94AB0541E0602F82E058
:100330000E941C061F5F143060F310E012C0E5E05D
:10034000F0E0EC0FFD1FE10FF11D008141E0602F97
:1003500080E00E94AB0541E0602F80E00E941C0617
:100360001F5F143060F328960FB6F894DEBF0FBEFF
:10037000CDBFDF91CF911F910F910895AF92BF92A2
:10038000CF92DF92EF92FF920F931F93CF93DF9361
:10039000CDB7DEB728970FB6F894DEBF0FBECDBF3E
:1003A00083E0898394E09A8395E09B8396E09C8325
:1003B0001D8291E09E8392E09F838887B12C3BC091
:1003C000CB2CD12CE5E0F0E0EC0FFD1FEC0DFD1D7A
:1003D000A08040E06A2D80E00E941C0610E023C04F
:1003E000E12EF12CE1E0F0E0EC0FFD1FEE0DFF1D22
:1003F0000081602F82E00E948D06811113C0C70129
:10040000880F991F880F991F805A9F4FFC01EC0D90
:10041000FD1D1081602F82E00E948D068823D1F39C
:10042000812F0DC01F5F1430D8F241E06A2D80E0AB
:100430000E941C06B39483E08B1510F68FEF28966C
:100440000FB6F894DEBF0FBECDBFDF91CF911F91E5
:100450000F91FF90EF90DF90CF90BF90AF900895F5
:10046000CF93C82F80FF06C041E064E080E00E9487
:100470001C0605C040E064E080E00E941C06C1FF4D
:1004800006C041E065E080E00E941C0605C040E037
:1004900065E080E00E941C06C2FF06C041E066E005
:1004A00080E00E941C0605C040E066E080E00E94FB
:1004B0001C06C3FF06C041E067E080E00E941C0606
:1004C00005C040E067E080E00E941C06CF910895DF
:1004D00041E064E081E00E941C068FE99FE0019703
:1004E000F1F700C0000040E064E081E00E941C06DB
:1004F0000895CF93C82F40E061E081E00E941C0680
:1005000040E062E081E00E941C068C2F82958F7093
:100510000E94300241E064E081E00E941C068FE905
:100520009FE00197F1F700C0000040E064E081E047
:100530000E941C068C2F0E94300241E064E081E0A2
:100540000E941C068FE99FE00197F1F700C00000B0
:1005500040E064E081E00E941C06CF91089541E0F4
:1005600061E081E00E94AB0541E062E081E00E9431
:10057000AB0541E064E081E00E94AB0541E064E04E
:1005800080E00E94AB0541E065E080E00E94AB05A1
:1005900041E066E080E00E94AB0541E067E080E07A
:1005A0000E94AB052FEF83EF91E0215080409040F7
:1005B000E1F700C0000040E061E081E00E941C061D
:1005C00040E062E081E00E941C0682E00E9430026E
:1005D00041E064E081E00E941C068FE99FE0019702
:1005E000F1F700C0000040E064E081E00E941C06DA
:1005F00088E20E94790290EF9A95F1F78CE00E94D0
:10060000790220EF2A95F1F781E00E9479028FE3C9
:100610009FE10197F1F700C0000086E00E94790297
:100620000895CF93C82F41E061E081E00E941C064D
:1006300040E062E081E00E941C068C2F82958F7062
:100640000E94300241E064E081E00E941C068FE9D4
:100650009FE00197F1F700C0000040E064E081E016
:100660000E941C068C2F0E9430020E946802CF91CB
:1006700008950F931F93CF938C01C0E003C00E9495
:100680001103CF5FF801EC0FF11D80818111F7CFCD
:10069000CF911F910F91089581E00E9479028FE31D
:1006A0009FE10197F1F700C000000895813009F43F
:1006B000605C862F80680E9479020895CF93DF9353
:1006C000AC01892BA9F580E30E94110362C0CE0121
:1006D000880F991FCC0FDD1FCC0FDD1FCC0FDD1F46
:1006E000C80FD91F9A01ADECBCEC0E946709969522
:1006F000879596958795969587959C01220F331F30
:10070000880F991F880F991F880F991F820F931FB9
:100710009A01281B390BC20FD31F9A010E94670947
:10072000AC0156954795569547955695479502C005
:10073000C1E0D0E04115510551F69E01ADECBCEC95
:100740000E946709969587959695879596958795C2
:100750009C01220F331F880F991F880F991F880F44
:10076000991F820F931F9E01281B390BC901805DC1
:100770000E9411039E01ADECBCEC0E946709EC01E4
:10078000D695C795D695C795D695C795C130D1054D
:10079000A1F6DF91CF9108950E94AF026BE080E057
:1007A0000E9456038BE691E00E9439032FEF89E601
:1007B00098E1215080409040E1F700C000000E9485
:1007C0004C036BE080E00E94560388E791E00E94B2
:1007D00039032FEF87E893E1215080409040E1F703
:1007E00000C000000E944C036BE080E00E945603B2
:1007F00086E891E00E9439032FEF85EA9EE02150C0
:1008000080409040E1F700C000000E944C0361E18D
:1008100080E00E94560385E991E00E9439032FEFA2
:1008200089E698E1215080409040E1F700C0000047
:100830000E944C0365E080E00E9456038CE991E041
:100840000E9439032FEF83ED90E3215080409040C8
:10085000E1F700C000000E944C0369E080E00E94C4
:1008600056038BEB91E00E9439032FEF83ED90E369
:10087000215080409040E1F700C000000E944C03EE
:1008800068E080E00E94560385ED91E00E94390304
:100890002FEF83ED90E3215080409040E1F700C0BE
:1008A00000000E944C036FE080E00E9456038CEE33
:1008B00091E00E9439032FEF83ED90E321508040B7
:1008C0009040E1F700C000000E944C03089560E0F2
:1008D00081E00E94560383E092E00E9439032FEFEB
:1008E00081EE94E0215080409040E1F700C000008C
:1008F00061E081E00E94560383E092E00E943903A8
:100900002FEF81EE94E0215080409040E1F700C04D
:10091000000062E081E00E94560383E092E00E94C2
:1009200039032FEF81EE94E0215080409040E1F7B1
:1009300000C0000063E081E00E94560385E092E081
:100940000E9439032FEF81EE94E0215080409040C7
:10095000E1F700C0000064E080E00E94560383E0FD
:1009600092E00E9439032FEF81EE94E02150804005
:100970009040E1F700C0000065E080E00E9456036F
:1009800083E092E00E9439032FEF81EE94E0215042
:1009900080409040E1F700C0000066E080E00E94E7
:1009A000560383E092E00E9439032FEF81EE94E03A
:1009B000215080409040E1F700C0000067E081E0F6
:1009C0000E94560385E092E00E9439032FEF81EEEA
:1009D00094E0215080409040E1F700C0000068E0C2
:1009E00081E00E94560383E092E00E9439032FEFDA
:1009F00081EE94E0215080409040E1F700C000007B
:100A000069E081E00E94560383E092E00E9439038E
:100A10002FEF81EE94E0215080409040E1F700C03C
:100A200000006AE081E00E94560383E092E00E94A9
:100A300039032FEF81EE94E0215080409040E1F7A0
:100A400000C000006BE081E00E94560385E092E068
:100A50000E9439032FEF81EE94E0215080409040B6
:100A6000E1F700C000006CE080E00E94560383E0E4
:100A700092E00E9439032FEF81EE94E021508040F4
:100A80009040E1F700C000006DE080E00E94560356
:100A900083E092E00E9439032FEF81EE94E0215031
:100AA00080409040E1F700C000006EE080E00E94CE
:100AB000560383E092E00E9439032FEF81EE94E029
:100AC000215080409040E1F700C000006FE081E0DD
:100AD0000E94560385E092E00E9439032FEF81EED9
:100AE00094E0215080409040E1F700C0000060E1B8
:100AF00081E00E94560383E092E00E9439032FEFC9
:100B000081EE94E0215080409040E1F700C0000069
:100B100061E181E00E94560383E092E00E94390384
:100B20002FEF81EE94E0215080409040E1F700C02B
:100B3000000062E181E00E94560383E092E00E949F
:100B400039032FEF81EE94E0215080409040E1F78F
:100B500000C000000895423008F06DC04130A1F59A
:100B6000813089F028F08230C9F0833011F1089586
:100B70002AB381E090E002C0880F991F6A95E2F7DE
:100B8000822B8ABB089527B381E090E002C0880FD2
:100B9000991F6A95E2F7822B87BB089524B381E001
:100BA00090E002C0880F991F6A95E2F7822B84BB00
:100BB000089521B381E090E002C0880F991F6A95E3
:100BC000E2F7822B81BB0895813091F028F08230CA
:100BD000D9F0833029F108952AB381E090E002C072
:100BE000880F991F6A95E2F7809582238ABB089542
:100BF00027B381E090E002C0880F991F6A95E2F761
:100C00008095822387BB089524B381E090E002C0E1
:100C1000880F991F6A95E2F78095822384BB089517
:100C200021B381E090E002C0880F991F6A95E2F736
:100C30008095822381BB0895423008F06DC0413019
:100C4000A1F5813089F028F08230C9F0833011F1AC
:100C500008952BB381E090E002C0880F991F6A9538
:100C6000E2F7822B8BBB089528B381E090E002C0AD
:100C7000880F991F6A95E2F7822B88BB089525B3E8
:100C800081E090E002C0880F991F6A95E2F7822BFD
:100C900085BB089522B381E090E002C0880F991FC0
:100CA0006A95E2F7822B82BB0895813091F028F09B
:100CB0008230D9F0833029F108952BB381E090E0A0
:100CC00002C0880F991F6A95E2F7809582238BBB3B
:100CD000089528B381E090E002C0880F991F6A95BB
:100CE000E2F78095822388BB089525B381E090E0E8
:100CF00002C0880F991F6A95E2F78095822385BB11
:100D0000089522B381E090E002C0880F991F6A9590
:100D1000E2F78095822382BB0895813079F028F034
:100D20008230A9F08330E1F024C089B390E002C0A2
:100D3000959587956A95E2F78170089586B390E05E
:100D400002C0959587956A95E2F78170089583B3FF
:100D500090E002C0959587956A95E2F781700895B5
:100D600080B390E002C0959587956A95E2F781700F
:100D7000089580E008959BB721E030E0082E02C07E
:100D8000220F331F0A94E2F7292B2BBF863031F054
:100D9000873041F1853009F055C048C0613069F0B5
:100DA00028F0623089F06330B1F0089585B78E7F06
:100DB00085BF85B78D7F85BF089585B78E7F85BF39
:100DC00085B7826085BF089585B7816085BF85B787
:100DD000826085BF089585B7816085BF85B78D7FA7
:100DE00085BF0895613069F028F0623089F0633082
:100DF000B1F0089585B78B7F85BF85B7877F85BFA5
:100E0000089585B78B7F85BF85B7886085BF0895B6
:100E100085B7846085BF85B7886085BF089585B72D
:100E2000846085BF85B7877F85BF0895613019F0DD
:100E3000623029F0089584B78F7B84BF089584B70A
:100E4000806484BF08959BB721E030E002C0220F88
:100E5000331F8A95E2F7209529232BBF089590939D
:100E600013028093120208951F920F920FB60F92F1
:100E700011242F933F934F935F936F937F938F939F
:100E80009F93AF93BF93EF93FF93E0911202F09182
:100E900013020995FF91EF91BF91AF919F918F91AF
:100EA0007F916F915F914F913F912F910F900FBE66
:100EB0000F901F9018951F920F920FB60F9211244A
:100EC0002F933F934F935F936F937F938F939F9352
:100ED000AF93BF93EF93FF93E0911002F091110253
:100EE0000995FF91EF91BF91AF919F918F917F9164
:100EF0006F915F914F913F912F910F900FBE0F9087
:100F00001F9018951F920F920FB60F9211242F93D6
:100F10003F934F935F936F937F938F939F93AF9381
:100F2000BF93EF93FF93E0910E02F0910F020995AA
:100F3000FF91EF91BF91AF919F918F917F916F91B1
:100F40005F914F913F912F910F900FBE0F901F9087
:100F500018958FB780688FBF089541E063E081E006
:100F60000E94AB05089583B7806483BF83B7886010
:100F700083BF83B78F7E83BF83B7806283BF0895AB
:100F800083B78B7F83BF83B7826083BF83B7816062
:100F900083BF08958CBF08958FB58F7B8FBD8FB5AC
:100FA0008F778FBD8FB58E7F8FBD8FB58D7F8FBDB6
:100FB0008EB5877F8EBD8EB58F7E8EBD08958EB522
:100FC0008E7F8EBD8EB582608EBD8EB58B7F8EBDC1
:100FD00008959DBD8CBD08958CB59DB508951F9253
:100FE0000F920FB60F9211242F933F934F935F935D
:100FF0006F937F938F939F93AF93BF93EF93FF93E1
:10100000E0911402F09115020995FF91EF91BF91C3
:10101000AF919F918F917F916F915F914F913F9190
:101020002F910F900FBE0F901F9018951F920F9247
:101030000FB60F9211242F933F934F935F936F93AB
:101040007F938F939F93AF93BF93EF93FF93E09121
:101050001602F09117020995FF91EF91BF91AF91A0
:101060009F918F917F916F915F914F913F912F91C0
:101070000F900FBE0F901F9018950E94B10888F036
:101080009F5798F0B92F9927B751B0F0E1F0660F4C
:10109000771F881F991F1AF0BA95C9F714C0B1308D
:1010A00091F00E94CB08B1E008950C94CB08672F13
:1010B000782F8827B85F39F0B93FCCF386957795BC
:1010C0006795B395D9F73EF49095809570956195A5
:1010D0007F4F8F4F9F4F0895E89409C097FB3EF4D0
:1010E00090958095709561957F4F8F4F9F4F992375
:1010F000A9F0F92F96E9BB279395F69587957795F3
:101100006795B795F111F8CFFAF4BB0F11F460FFB2
:101110001BC06F5F7F4F8F4F9F4F16C0882311F00A
:1011200096E911C0772321F09EE8872F762F05C01E
:10113000662371F096E8862F70E060E02AF09A95B9
:10114000660F771F881FDAF7880F9695879597F9AE
:10115000089557FD9058440F551F59F05F3F71F0A7
:101160004795880F97FB991F61F09F3F79F087950E
:101170000895121613061406551FF2CF4695F1DF97
:1011800008C0161617061806991FF1CF8695710527
:10119000610508940895E894BB2766277727CB015B
:1011A00097F908950E94E5080C9456090E94480991
:1011B00038F00E944F0920F0952311F00C943F095C
:1011C0000C94450911240C94CC080E94A90870F3D2
:1011D000959FC1F3950F50E0551F629FF001729FDC
:1011E000BB27F00DB11D639FAA27F00DB11DAA1FEB
:1011F000649F6627B00DA11D661F829F2227B00D38
:10120000A11D621F739FB00DA11D621F839FA00DC2
:10121000611D221F749F3327A00D611D231F849F12
:10122000600D211D822F762F6A2F11249F57504069
:101230009AF0F1F088234AF0EE0FFF1FBB1F661FE4
:10124000771F881F91505040A9F79E3F510580F0AD
:101250000C943F090C94CC085F3FE4F3983ED4F320
:10126000869577956795B795F795E7959F5FC1F751
:10127000FE2B880F911D9695879597F9089597F9FC
:101280009F6780E870E060E008959FEF80EC08952C
:1012900000240A9416161706180609060895002455
:1012A0000A9412161306140605060895092E0394CF
:1012B000000C11F4882352F0BB0F40F4BF2B11F443
:1012C00060FF04C06F5F7F4F8F4F9F4F0895A29FB5
:1012D000B001B39FC001A39F700D811D1124911D0A
:1012E000B29F700D811D1124911D0895F894FFCFB8
:1012F0003132334134353642373839432A3023448A
:10130000496E697469616C697A696E672050574DDE
:10131000205369676E616C00496E697469616C691C
:101320007A696E672054494D4552203000537461EC
:101330007274696E672054494D4552203000496EE1
:10134000697469616C697A696E672054494D4552C8
:101350002031005374617274696E672054494D45A1
:1013600052203100496E7365727420636F6D706135
:101370007265206D61746368206E756D62657220A0
:101380007573696E67204B65797061642000496EE2
:101390007365727420636F6D70617265206D617426
:1013A00063682076616C7565207573696E67204B84
:1013B00065797061642E2E2E2000596F7572206938
:1013C0006E73657274656420636F6D706172652001
:1013D0006D617463682076616C75652069733A206D
:1013E00000506572696F64205469636B733D20001F
:1013F0004F6E205469636B733D20004C4F4144494C
:101400004E47202E2E2E20004C4F4144494E47205F
:101410002E2E2E2E20004C4F4144494E47202E2E7A
:101420002E2E2E200048454C4C4F2000456D626505
:10143000646465642053595354454D532050524FB2
:101440004A454354204259203A20004D41524941D7
:101450004D2052414D4144414E20454C2042414493
:10146000524920200050574D2044524157455220A8
:101470004953205354415254494E470057454C4319
:101480004F4D45203D2920004943522056616C753F
:08149000653A005F007C0000DA
:00000001FF
